:040000008031132810
:100008007E1480318B1D09280A2811280B1C0D2805
:100018000E2811288131392180317E100900803164
:100028001528703084000030850008308131172190
:100038008031203084000030850020308131172144
:1000480080317E102000803129288031FB208031CA
:100058006400F201F301F601F7017708F900760868
:10006800F8008131232180310030F800F900813116
:100078001D2180318131362180318131302180311B
:1000880081313321803181312D218031640020007C
:100098008E1C4F285028532822000C145528220063
:1000A8000C1020000E1C59285A2863287830F200BA
:1000B8002230F3007308F7007208F6007028F60182
:1000C800F7010E1D682869286E28DE30F200893095
:1000D800F3007028F201F30175087706031D7628EE
:1000E80074087606031979287A2888287708F5008D
:1000F8007608F4007708F9007608F80081312321A2
:10010800803181313621803171087306031D8E28B4
:1001180070087206031991289228A0287308F10024
:100128007208F0007308F9007208F80081311D2187
:1001380080318131302180316830FA00E430890B18
:10014800A328FA0BA32800324A288031132822005A
:100158008C018E011C3021008C0007308E0023009A
:100168008E018C0124008C018E0121009517250039
:100178008C018E01373026008C003F308E00043011
:100188003D00A3000330950008003B00AC01AD0121
:100198006030AE00AF01B001A201A1012230A4007D
:1001A8007830A3008930A600DE30A500A801013010
:1001B800A700AA01A9018030AB0008003B009C0100
:1001C8009D0160309E009F01A001920191012230A3
:1001D80094007830930089309600DE3095009801BD
:1001E800013097009A01990180309B000800803106
:1001F800AB20803181310B2180318131292180313F
:100208008031E22080318031C9208031080070308F
:100218002100990098012200960121001A1F152932
:10022800162911290800640080010131890B182959
:10023800003479083B00A4007808A3000800790876
:100248003B009400780893000800123021009700C2
:1002580008003B00AB1708003B00AF1708003B0045
:0C0268009B1708003B009F1708000800CF
:020000040001F9
:08000000FF3FFF3FFF3FFF3F00
:04000E00BC3FFF1FD5
:00000001FF
